{
  "_format": "hh-sol-artifact-1",
  "contractName": "SampleERC721",
  "sourceName": "contracts/SampleERC721.sol",
  "abi": [
    {
      "inputs": [
        {
          "internalType": "string",
          "name": "_name",
          "type": "string"
        },
        {
          "internalType": "string",
          "name": "_symbol",
          "type": "string"
        }
      ],
      "stateMutability": "nonpayable",
      "type": "constructor"
    },
    {
      "anonymous": false,
      "inputs": [
        {
          "indexed": true,
          "internalType": "address",
          "name": "owner",
          "type": "address"
        },
        {
          "indexed": true,
          "internalType": "address",
          "name": "approved",
          "type": "address"
        },
        {
          "indexed": true,
          "internalType": "uint256",
          "name": "tokenId",
          "type": "uint256"
        }
      ],
      "name": "Approval",
      "type": "event"
    },
    {
      "anonymous": false,
      "inputs": [
        {
          "indexed": true,
          "internalType": "address",
          "name": "owner",
          "type": "address"
        },
        {
          "indexed": true,
          "internalType": "address",
          "name": "operator",
          "type": "address"
        },
        {
          "indexed": false,
          "internalType": "bool",
          "name": "approved",
          "type": "bool"
        }
      ],
      "name": "ApprovalForAll",
      "type": "event"
    },
    {
      "anonymous": false,
      "inputs": [
        {
          "indexed": true,
          "internalType": "address",
          "name": "from",
          "type": "address"
        },
        {
          "indexed": true,
          "internalType": "address",
          "name": "to",
          "type": "address"
        },
        {
          "indexed": true,
          "internalType": "uint256",
          "name": "tokenId",
          "type": "uint256"
        }
      ],
      "name": "Transfer",
      "type": "event"
    },
    {
      "inputs": [
        {
          "internalType": "address",
          "name": "_from",
          "type": "address"
        },
        {
          "internalType": "address",
          "name": "_to",
          "type": "address"
        },
        {
          "internalType": "uint256",
          "name": "_tokenId",
          "type": "uint256"
        }
      ],
      "name": "STF",
      "outputs": [
        {
          "internalType": "bool",
          "name": "success",
          "type": "bool"
        }
      ],
      "stateMutability": "nonpayable",
      "type": "function"
    },
    {
      "inputs": [
        {
          "internalType": "address",
          "name": "to",
          "type": "address"
        },
        {
          "internalType": "uint256",
          "name": "tokenId",
          "type": "uint256"
        }
      ],
      "name": "approve",
      "outputs": [],
      "stateMutability": "nonpayable",
      "type": "function"
    },
    {
      "inputs": [
        {
          "internalType": "address",
          "name": "_owner",
          "type": "address"
        }
      ],
      "name": "balance",
      "outputs": [
        {
          "internalType": "uint256",
          "name": "",
          "type": "uint256"
        }
      ],
      "stateMutability": "view",
      "type": "function"
    },
    {
      "inputs": [
        {
          "internalType": "address",
          "name": "owner",
          "type": "address"
        }
      ],
      "name": "balanceOf",
      "outputs": [
        {
          "internalType": "uint256",
          "name": "",
          "type": "uint256"
        }
      ],
      "stateMutability": "view",
      "type": "function"
    },
    {
      "inputs": [
        {
          "internalType": "uint256",
          "name": "tokenId",
          "type": "uint256"
        }
      ],
      "name": "getApproved",
      "outputs": [
        {
          "internalType": "address",
          "name": "",
          "type": "address"
        }
      ],
      "stateMutability": "view",
      "type": "function"
    },
    {
      "inputs": [
        {
          "internalType": "address",
          "name": "owner",
          "type": "address"
        },
        {
          "internalType": "address",
          "name": "operator",
          "type": "address"
        }
      ],
      "name": "isApprovedForAll",
      "outputs": [
        {
          "internalType": "bool",
          "name": "",
          "type": "bool"
        }
      ],
      "stateMutability": "view",
      "type": "function"
    },
    {
      "inputs": [
        {
          "internalType": "address",
          "name": "_to",
          "type": "address"
        }
      ],
      "name": "mint721",
      "outputs": [],
      "stateMutability": "nonpayable",
      "type": "function"
    },
    {
      "inputs": [],
      "name": "name",
      "outputs": [
        {
          "internalType": "string",
          "name": "",
          "type": "string"
        }
      ],
      "stateMutability": "view",
      "type": "function"
    },
    {
      "inputs": [
        {
          "internalType": "uint256",
          "name": "tokenId",
          "type": "uint256"
        }
      ],
      "name": "ownerOf",
      "outputs": [
        {
          "internalType": "address",
          "name": "",
          "type": "address"
        }
      ],
      "stateMutability": "view",
      "type": "function"
    },
    {
      "inputs": [
        {
          "internalType": "uint256",
          "name": "_tokenId",
          "type": "uint256"
        }
      ],
      "name": "ownerOfToken",
      "outputs": [
        {
          "internalType": "address",
          "name": "",
          "type": "address"
        }
      ],
      "stateMutability": "view",
      "type": "function"
    },
    {
      "inputs": [
        {
          "internalType": "address",
          "name": "from",
          "type": "address"
        },
        {
          "internalType": "address",
          "name": "to",
          "type": "address"
        },
        {
          "internalType": "uint256",
          "name": "tokenId",
          "type": "uint256"
        }
      ],
      "name": "safeTransferFrom",
      "outputs": [],
      "stateMutability": "nonpayable",
      "type": "function"
    },
    {
      "inputs": [
        {
          "internalType": "address",
          "name": "from",
          "type": "address"
        },
        {
          "internalType": "address",
          "name": "to",
          "type": "address"
        },
        {
          "internalType": "uint256",
          "name": "tokenId",
          "type": "uint256"
        },
        {
          "internalType": "bytes",
          "name": "_data",
          "type": "bytes"
        }
      ],
      "name": "safeTransferFrom",
      "outputs": [],
      "stateMutability": "nonpayable",
      "type": "function"
    },
    {
      "inputs": [
        {
          "internalType": "address",
          "name": "operator",
          "type": "address"
        },
        {
          "internalType": "bool",
          "name": "approved",
          "type": "bool"
        }
      ],
      "name": "setApprovalForAll",
      "outputs": [],
      "stateMutability": "nonpayable",
      "type": "function"
    },
    {
      "inputs": [
        {
          "internalType": "bytes4",
          "name": "interfaceId",
          "type": "bytes4"
        }
      ],
      "name": "supportsInterface",
      "outputs": [
        {
          "internalType": "bool",
          "name": "",
          "type": "bool"
        }
      ],
      "stateMutability": "view",
      "type": "function"
    },
    {
      "inputs": [],
      "name": "symbol",
      "outputs": [
        {
          "internalType": "string",
          "name": "",
          "type": "string"
        }
      ],
      "stateMutability": "view",
      "type": "function"
    },
    {
      "inputs": [
        {
          "internalType": "uint256",
          "name": "tokenId",
          "type": "uint256"
        }
      ],
      "name": "tokenURI",
      "outputs": [
        {
          "internalType": "string",
          "name": "",
          "type": "string"
        }
      ],
      "stateMutability": "view",
      "type": "function"
    },
    {
      "inputs": [
        {
          "internalType": "address",
          "name": "from",
          "type": "address"
        },
        {
          "internalType": "address",
          "name": "to",
          "type": "address"
        },
        {
          "internalType": "uint256",
          "name": "tokenId",
          "type": "uint256"
        }
      ],
      "name": "transferFrom",
      "outputs": [],
      "stateMutability": "nonpayable",
      "type": "function"
    }
  ],
  "bytecode": "0x608060405260016006553480156200001657600080fd5b5060405162002bcd38038062002bcd83398181016040528101906200003c9190620002c7565b81818160009080519060200190620000569291906200007a565b5080600190805190602001906200006f9291906200007a565b5050505050620003b1565b82805462000088906200037b565b90600052602060002090601f016020900481019282620000ac5760008555620000f8565b82601f10620000c757805160ff1916838001178555620000f8565b82800160010185558215620000f8579182015b82811115620000f7578251825591602001919060010190620000da565b5b5090506200010791906200010b565b5090565b5b80821115620001265760008160009055506001016200010c565b5090565b6000604051905090565b600080fd5b600080fd5b600080fd5b600080fd5b6000601f19601f8301169050919050565b7f4e487b7100000000000000000000000000000000000000000000000000000000600052604160045260246000fd5b620001938262000148565b810181811067ffffffffffffffff82111715620001b557620001b462000159565b5b80604052505050565b6000620001ca6200012a565b9050620001d8828262000188565b919050565b600067ffffffffffffffff821115620001fb57620001fa62000159565b5b620002068262000148565b9050602081019050919050565b60005b838110156200023357808201518184015260208101905062000216565b8381111562000243576000848401525b50505050565b6000620002606200025a84620001dd565b620001be565b9050828152602081018484840111156200027f576200027e62000143565b5b6200028c84828562000213565b509392505050565b600082601f830112620002ac57620002ab6200013e565b5b8151620002be84826020860162000249565b91505092915050565b60008060408385031215620002e157620002e062000134565b5b600083015167ffffffffffffffff81111562000302576200030162000139565b5b620003108582860162000294565b925050602083015167ffffffffffffffff81111562000334576200033362000139565b5b620003428582860162000294565b9150509250929050565b7f4e487b7100000000000000000000000000000000000000000000000000000000600052602260045260246000fd5b600060028204905060018216806200039457607f821691505b60208210811415620003ab57620003aa6200034c565b5b50919050565b61280c80620003c16000396000f3fe608060405234801561001057600080fd5b506004361061010b5760003560e01c8063815a12f6116100a2578063c57ac5d611610071578063c57ac5d6146102b4578063c87b56dd146102e4578063e3d670d714610314578063e985e9c514610344578063ed5862ec146103745761010b565b8063815a12f61461024257806395d89b411461025e578063a22cb4651461027c578063b88d4fde146102985761010b565b806323b872dd116100de57806323b872dd146101aa57806342842e0e146101c65780636352211e146101e257806370a08231146102125761010b565b806301ffc9a71461011057806306fdde0314610140578063081812fc1461015e578063095ea7b31461018e575b600080fd5b61012a6004803603810190610125919061178f565b6103a4565b60405161013791906117d7565b60405180910390f35b610148610486565b604051610155919061188b565b60405180910390f35b610178600480360381019061017391906118e3565b610518565b6040516101859190611951565b60405180910390f35b6101a860048036038101906101a39190611998565b61059d565b005b6101c460048036038101906101bf91906119d8565b6106b5565b005b6101e060048036038101906101db91906119d8565b610715565b005b6101fc60048036038101906101f791906118e3565b610735565b6040516102099190611951565b60405180910390f35b61022c60048036038101906102279190611a2b565b6107e7565b6040516102399190611a67565b60405180910390f35b61025c60048036038101906102579190611a2b565b61089f565b005b6102666108c6565b604051610273919061188b565b60405180910390f35b61029660048036038101906102919190611aae565b610958565b005b6102b260048036038101906102ad9190611c23565b61096e565b005b6102ce60048036038101906102c991906118e3565b6109d0565b6040516102db9190611951565b60405180910390f35b6102fe60048036038101906102f991906118e3565b6109e7565b60405161030b919061188b565b60405180910390f35b61032e60048036038101906103299190611a2b565b610a8e565b60405161033b9190611a67565b60405180910390f35b61035e60048036038101906103599190611ca6565b610aa0565b60405161036b91906117d7565b60405180910390f35b61038e600480360381019061038991906119d8565b610b34565b60405161039b91906117d7565b60405180910390f35b60007f80ac58cd000000000000000000000000000000000000000000000000000000007bffffffffffffffffffffffffffffffffffffffffffffffffffffffff1916827bffffffffffffffffffffffffffffffffffffffffffffffffffffffff1916148061046f57507f5b5e139f000000000000000000000000000000000000000000000000000000007bffffffffffffffffffffffffffffffffffffffffffffffffffffffff1916827bffffffffffffffffffffffffffffffffffffffffffffffffffffffff1916145b8061047f575061047e82610b68565b5b9050919050565b60606000805461049590611d15565b80601f01602080910402602001604051908101604052809291908181526020018280546104c190611d15565b801561050e5780601f106104e35761010080835404028352916020019161050e565b820191906000526020600020905b8154815290600101906020018083116104f157829003601f168201915b5050505050905090565b600061052382610bd2565b610562576040517f08c379a000000000000000000000000000000000000000000000000000000000815260040161055990611db9565b60405180910390fd5b6004600083815260200190815260200160002060009054906101000a900473ffffffffffffffffffffffffffffffffffffffff169050919050565b60006105a882610735565b90508073ffffffffffffffffffffffffffffffffffffffff168373ffffffffffffffffffffffffffffffffffffffff161415610619576040517f08c379a000000000000000000000000000000000000000000000000000000000815260040161061090611e4b565b60405180910390fd5b8073ffffffffffffffffffffffffffffffffffffffff16610638610c3e565b73ffffffffffffffffffffffffffffffffffffffff161480610667575061066681610661610c3e565b610aa0565b5b6106a6576040517f08c379a000000000000000000000000000000000000000000000000000000000815260040161069d90611edd565b60405180910390fd5b6106b08383610c46565b505050565b6106c66106c0610c3e565b82610cff565b610705576040517f08c379a00000000000000000000000000000000000000000000000000000000081526004016106fc90611f6f565b60405180910390fd5b610710838383610ddd565b505050565b6107308383836040518060200160405280600081525061096e565b505050565b6000806002600084815260200190815260200160002060009054906101000a900473ffffffffffffffffffffffffffffffffffffffff169050600073ffffffffffffffffffffffffffffffffffffffff168173ffffffffffffffffffffffffffffffffffffffff1614156107de576040517f08c379a00000000000000000000000000000000000000000000000000000000081526004016107d590612001565b60405180910390fd5b80915050919050565b60008073ffffffffffffffffffffffffffffffffffffffff168273ffffffffffffffffffffffffffffffffffffffff161415610858576040517f08c379a000000000000000000000000000000000000000000000000000000000815260040161084f90612093565b60405180910390fd5b600360008373ffffffffffffffffffffffffffffffffffffffff1673ffffffffffffffffffffffffffffffffffffffff168152602001908152602001600020549050919050565b6108ab81600654611044565b600660008154809291906108be906120e2565b919050555050565b6060600180546108d590611d15565b80601f016020809104026020016040519081016040528092919081815260200182805461090190611d15565b801561094e5780601f106109235761010080835404028352916020019161094e565b820191906000526020600020905b81548152906001019060200180831161093157829003601f168201915b5050505050905090565b61096a610963610c3e565b838361121e565b5050565b61097f610979610c3e565b83610cff565b6109be576040517f08c379a00000000000000000000000000000000000000000000000000000000081526004016109b590611f6f565b60405180910390fd5b6109ca8484848461138b565b50505050565b6000806109dc83610735565b905080915050919050565b60606109f282610bd2565b610a31576040517f08c379a0000000000000000000000000000000000000000000000000000000008152600401610a289061219d565b60405180910390fd5b6000610a3b6113e7565b90506000815111610a5b5760405180602001604052806000815250610a86565b80610a65846113fe565b604051602001610a769291906121f9565b6040516020818303038152906040525b915050919050565b6000610a99826107e7565b9050919050565b6000600560008473ffffffffffffffffffffffffffffffffffffffff1673ffffffffffffffffffffffffffffffffffffffff16815260200190815260200160002060008373ffffffffffffffffffffffffffffffffffffffff1673ffffffffffffffffffffffffffffffffffffffff16815260200190815260200160002060009054906101000a900460ff16905092915050565b600080610b4085610a8e565b9050610b4d8585856106b5565b6000610b5886610a8e565b9050818110925050509392505050565b60007f01ffc9a7000000000000000000000000000000000000000000000000000000007bffffffffffffffffffffffffffffffffffffffffffffffffffffffff1916827bffffffffffffffffffffffffffffffffffffffffffffffffffffffff1916149050919050565b60008073ffffffffffffffffffffffffffffffffffffffff166002600084815260200190815260200160002060009054906101000a900473ffffffffffffffffffffffffffffffffffffffff1673ffffffffffffffffffffffffffffffffffffffff1614159050919050565b600033905090565b816004600083815260200190815260200160002060006101000a81548173ffffffffffffffffffffffffffffffffffffffff021916908373ffffffffffffffffffffffffffffffffffffffff160217905550808273ffffffffffffffffffffffffffffffffffffffff16610cb983610735565b73ffffffffffffffffffffffffffffffffffffffff167f8c5be1e5ebec7d5bd14f71427d1e84f3dd0314c0f7b2291e5b200ac8c7c3b92560405160405180910390a45050565b6000610d0a82610bd2565b610d49576040517f08c379a0000000000000000000000000000000000000000000000000000000008152600401610d409061228f565b60405180910390fd5b6000610d5483610735565b90508073ffffffffffffffffffffffffffffffffffffffff168473ffffffffffffffffffffffffffffffffffffffff161480610dc357508373ffffffffffffffffffffffffffffffffffffffff16610dab84610518565b73ffffffffffffffffffffffffffffffffffffffff16145b80610dd45750610dd38185610aa0565b5b91505092915050565b8273ffffffffffffffffffffffffffffffffffffffff16610dfd82610735565b73ffffffffffffffffffffffffffffffffffffffff1614610e53576040517f08c379a0000000000000000000000000000000000000000000000000000000008152600401610e4a90612321565b60405180910390fd5b600073ffffffffffffffffffffffffffffffffffffffff168273ffffffffffffffffffffffffffffffffffffffff161415610ec3576040517f08c379a0000000000000000000000000000000000000000000000000000000008152600401610eba906123b3565b60405180910390fd5b610ece83838361155f565b610ed9600082610c46565b6001600360008573ffffffffffffffffffffffffffffffffffffffff1673ffffffffffffffffffffffffffffffffffffffff1681526020019081526020016000206000828254610f2991906123d3565b925050819055506001600360008473ffffffffffffffffffffffffffffffffffffffff1673ffffffffffffffffffffffffffffffffffffffff1681526020019081526020016000206000828254610f809190612407565b92505081905550816002600083815260200190815260200160002060006101000a81548173ffffffffffffffffffffffffffffffffffffffff021916908373ffffffffffffffffffffffffffffffffffffffff160217905550808273ffffffffffffffffffffffffffffffffffffffff168473ffffffffffffffffffffffffffffffffffffffff167fddf252ad1be2c89b69c2b068fc378daa952ba7f163c4a11628f55a4df523b3ef60405160405180910390a461103f838383611564565b505050565b600073ffffffffffffffffffffffffffffffffffffffff168273ffffffffffffffffffffffffffffffffffffffff1614156110b4576040517f08c379a00000000000000000000000000000000000000000000000000000000081526004016110ab906124a9565b60405180910390fd5b6110bd81610bd2565b156110fd576040517f08c379a00000000000000000000000000000000000000000000000000000000081526004016110f490612515565b60405180910390fd5b6111096000838361155f565b6001600360008473ffffffffffffffffffffffffffffffffffffffff1673ffffffffffffffffffffffffffffffffffffffff16815260200190815260200160002060008282546111599190612407565b92505081905550816002600083815260200190815260200160002060006101000a81548173ffffffffffffffffffffffffffffffffffffffff021916908373ffffffffffffffffffffffffffffffffffffffff160217905550808273ffffffffffffffffffffffffffffffffffffffff16600073ffffffffffffffffffffffffffffffffffffffff167fddf252ad1be2c89b69c2b068fc378daa952ba7f163c4a11628f55a4df523b3ef60405160405180910390a461121a60008383611564565b5050565b8173ffffffffffffffffffffffffffffffffffffffff168373ffffffffffffffffffffffffffffffffffffffff16141561128d576040517f08c379a000000000000000000000000000000000000000000000000000000000815260040161128490612581565b60405180910390fd5b80600560008573ffffffffffffffffffffffffffffffffffffffff1673ffffffffffffffffffffffffffffffffffffffff16815260200190815260200160002060008473ffffffffffffffffffffffffffffffffffffffff1673ffffffffffffffffffffffffffffffffffffffff16815260200190815260200160002060006101000a81548160ff0219169083151502179055508173ffffffffffffffffffffffffffffffffffffffff168373ffffffffffffffffffffffffffffffffffffffff167f17307eab39ab6107e8899845ad3d59bd9653f200f220920489ca2b5937696c318360405161137e91906117d7565b60405180910390a3505050565b611396848484610ddd565b6113a284848484611569565b6113e1576040517f08c379a00000000000000000000000000000000000000000000000000000000081526004016113d890612613565b60405180910390fd5b50505050565b606060405180602001604052806000815250905090565b60606000821415611446576040518060400160405280600181526020017f3000000000000000000000000000000000000000000000000000000000000000815250905061155a565b600082905060005b60008214611478578080611461906120e2565b915050600a826114719190612662565b915061144e565b60008167ffffffffffffffff81111561149457611493611af8565b5b6040519080825280601f01601f1916602001820160405280156114c65781602001600182028036833780820191505090505b5090505b60008514611553576001826114df91906123d3565b9150600a856114ee9190612693565b60306114fa9190612407565b60f81b8183815181106115105761150f6126c4565b5b60200101907effffffffffffffffffffffffffffffffffffffffffffffffffffffffffffff1916908160001a905350600a8561154c9190612662565b94506114ca565b8093505050505b919050565b505050565b505050565b600061158a8473ffffffffffffffffffffffffffffffffffffffff16611700565b156116f3578373ffffffffffffffffffffffffffffffffffffffff1663150b7a026115b3610c3e565b8786866040518563ffffffff1660e01b81526004016115d59493929190612748565b602060405180830381600087803b1580156115ef57600080fd5b505af192505050801561162057506040513d601f19601f8201168201806040525081019061161d91906127a9565b60015b6116a3573d8060008114611650576040519150601f19603f3d011682016040523d82523d6000602084013e611655565b606091505b5060008151141561169b576040517f08c379a000000000000000000000000000000000000000000000000000000000815260040161169290612613565b60405180910390fd5b805181602001fd5b63150b7a0260e01b7bffffffffffffffffffffffffffffffffffffffffffffffffffffffff1916817bffffffffffffffffffffffffffffffffffffffffffffffffffffffff1916149150506116f8565b600190505b949350505050565b6000808273ffffffffffffffffffffffffffffffffffffffff163b119050919050565b6000604051905090565b600080fd5b600080fd5b60007fffffffff0000000000000000000000000000000000000000000000000000000082169050919050565b61176c81611737565b811461177757600080fd5b50565b60008135905061178981611763565b92915050565b6000602082840312156117a5576117a461172d565b5b60006117b38482850161177a565b91505092915050565b60008115159050919050565b6117d1816117bc565b82525050565b60006020820190506117ec60008301846117c8565b92915050565b600081519050919050565b600082825260208201905092915050565b60005b8381101561182c578082015181840152602081019050611811565b8381111561183b576000848401525b50505050565b6000601f19601f8301169050919050565b600061185d826117f2565b61186781856117fd565b935061187781856020860161180e565b61188081611841565b840191505092915050565b600060208201905081810360008301526118a58184611852565b905092915050565b6000819050919050565b6118c0816118ad565b81146118cb57600080fd5b50565b6000813590506118dd816118b7565b92915050565b6000602082840312156118f9576118f861172d565b5b6000611907848285016118ce565b91505092915050565b600073ffffffffffffffffffffffffffffffffffffffff82169050919050565b600061193b82611910565b9050919050565b61194b81611930565b82525050565b60006020820190506119666000830184611942565b92915050565b61197581611930565b811461198057600080fd5b50565b6000813590506119928161196c565b92915050565b600080604083850312156119af576119ae61172d565b5b60006119bd85828601611983565b92505060206119ce858286016118ce565b9150509250929050565b6000806000606084860312156119f1576119f061172d565b5b60006119ff86828701611983565b9350506020611a1086828701611983565b9250506040611a21868287016118ce565b9150509250925092565b600060208284031215611a4157611a4061172d565b5b6000611a4f84828501611983565b91505092915050565b611a61816118ad565b82525050565b6000602082019050611a7c6000830184611a58565b92915050565b611a8b816117bc565b8114611a9657600080fd5b50565b600081359050611aa881611a82565b92915050565b60008060408385031215611ac557611ac461172d565b5b6000611ad385828601611983565b9250506020611ae485828601611a99565b9150509250929050565b600080fd5b600080fd5b7f4e487b7100000000000000000000000000000000000000000000000000000000600052604160045260246000fd5b611b3082611841565b810181811067ffffffffffffffff82111715611b4f57611b4e611af8565b5b80604052505050565b6000611b62611723565b9050611b6e8282611b27565b919050565b600067ffffffffffffffff821115611b8e57611b8d611af8565b5b611b9782611841565b9050602081019050919050565b82818337600083830152505050565b6000611bc6611bc184611b73565b611b58565b905082815260208101848484011115611be257611be1611af3565b5b611bed848285611ba4565b509392505050565b600082601f830112611c0a57611c09611aee565b5b8135611c1a848260208601611bb3565b91505092915050565b60008060008060808587031215611c3d57611c3c61172d565b5b6000611c4b87828801611983565b9450506020611c5c87828801611983565b9350506040611c6d878288016118ce565b925050606085013567ffffffffffffffff811115611c8e57611c8d611732565b5b611c9a87828801611bf5565b91505092959194509250565b60008060408385031215611cbd57611cbc61172d565b5b6000611ccb85828601611983565b9250506020611cdc85828601611983565b9150509250929050565b7f4e487b7100000000000000000000000000000000000000000000000000000000600052602260045260246000fd5b60006002820490506001821680611d2d57607f821691505b60208210811415611d4157611d40611ce6565b5b50919050565b7f4552433732313a20617070726f76656420717565727920666f72206e6f6e657860008201527f697374656e7420746f6b656e0000000000000000000000000000000000000000602082015250565b6000611da3602c836117fd565b9150611dae82611d47565b604082019050919050565b60006020820190508181036000830152611dd281611d96565b9050919050565b7f4552433732313a20617070726f76616c20746f2063757272656e74206f776e6560008201527f7200000000000000000000000000000000000000000000000000000000000000602082015250565b6000611e356021836117fd565b9150611e4082611dd9565b604082019050919050565b60006020820190508181036000830152611e6481611e28565b9050919050565b7f4552433732313a20617070726f76652063616c6c6572206973206e6f74206f7760008201527f6e6572206e6f7220617070726f76656420666f7220616c6c0000000000000000602082015250565b6000611ec76038836117fd565b9150611ed282611e6b565b604082019050919050565b60006020820190508181036000830152611ef681611eba565b9050919050565b7f4552433732313a207472616e736665722063616c6c6572206973206e6f74206f60008201527f776e6572206e6f7220617070726f766564000000000000000000000000000000602082015250565b6000611f596031836117fd565b9150611f6482611efd565b604082019050919050565b60006020820190508181036000830152611f8881611f4c565b9050919050565b7f4552433732313a206f776e657220717565727920666f72206e6f6e657869737460008201527f656e7420746f6b656e0000000000000000000000000000000000000000000000602082015250565b6000611feb6029836117fd565b9150611ff682611f8f565b604082019050919050565b6000602082019050818103600083015261201a81611fde565b9050919050565b7f4552433732313a2062616c616e636520717565727920666f7220746865207a6560008201527f726f206164647265737300000000000000000000000000000000000000000000602082015250565b600061207d602a836117fd565b915061208882612021565b604082019050919050565b600060208201905081810360008301526120ac81612070565b9050919050565b7f4e487b7100000000000000000000000000000000000000000000000000000000600052601160045260246000fd5b60006120ed826118ad565b91507fffffffffffffffffffffffffffffffffffffffffffffffffffffffffffffffff8214156121205761211f6120b3565b5b600182019050919050565b7f4552433732314d657461646174613a2055524920717565727920666f72206e6f60008201527f6e6578697374656e7420746f6b656e0000000000000000000000000000000000602082015250565b6000612187602f836117fd565b91506121928261212b565b604082019050919050565b600060208201905081810360008301526121b68161217a565b9050919050565b600081905092915050565b60006121d3826117f2565b6121dd81856121bd565b93506121ed81856020860161180e565b80840191505092915050565b600061220582856121c8565b915061221182846121c8565b91508190509392505050565b7f4552433732313a206f70657261746f7220717565727920666f72206e6f6e657860008201527f697374656e7420746f6b656e0000000000000000000000000000000000000000602082015250565b6000612279602c836117fd565b91506122848261221d565b604082019050919050565b600060208201905081810360008301526122a88161226c565b9050919050565b7f4552433732313a207472616e736665722066726f6d20696e636f72726563742060008201527f6f776e6572000000000000000000000000000000000000000000000000000000602082015250565b600061230b6025836117fd565b9150612316826122af565b604082019050919050565b6000602082019050818103600083015261233a816122fe565b9050919050565b7f4552433732313a207472616e7366657220746f20746865207a65726f2061646460008201527f7265737300000000000000000000000000000000000000000000000000000000602082015250565b600061239d6024836117fd565b91506123a882612341565b604082019050919050565b600060208201905081810360008301526123cc81612390565b9050919050565b60006123de826118ad565b91506123e9836118ad565b9250828210156123fc576123fb6120b3565b5b828203905092915050565b6000612412826118ad565b915061241d836118ad565b9250827fffffffffffffffffffffffffffffffffffffffffffffffffffffffffffffffff03821115612452576124516120b3565b5b828201905092915050565b7f4552433732313a206d696e7420746f20746865207a65726f2061646472657373600082015250565b60006124936020836117fd565b915061249e8261245d565b602082019050919050565b600060208201905081810360008301526124c281612486565b9050919050565b7f4552433732313a20746f6b656e20616c7265616479206d696e74656400000000600082015250565b60006124ff601c836117fd565b915061250a826124c9565b602082019050919050565b6000602082019050818103600083015261252e816124f2565b9050919050565b7f4552433732313a20617070726f766520746f2063616c6c657200000000000000600082015250565b600061256b6019836117fd565b915061257682612535565b602082019050919050565b6000602082019050818103600083015261259a8161255e565b9050919050565b7f4552433732313a207472616e7366657220746f206e6f6e20455243373231526560008201527f63656976657220696d706c656d656e7465720000000000000000000000000000602082015250565b60006125fd6032836117fd565b9150612608826125a1565b604082019050919050565b6000602082019050818103600083015261262c816125f0565b9050919050565b7f4e487b7100000000000000000000000000000000000000000000000000000000600052601260045260246000fd5b600061266d826118ad565b9150612678836118ad565b92508261268857612687612633565b5b828204905092915050565b600061269e826118ad565b91506126a9836118ad565b9250826126b9576126b8612633565b5b828206905092915050565b7f4e487b7100000000000000000000000000000000000000000000000000000000600052603260045260246000fd5b600081519050919050565b600082825260208201905092915050565b600061271a826126f3565b61272481856126fe565b935061273481856020860161180e565b61273d81611841565b840191505092915050565b600060808201905061275d6000830187611942565b61276a6020830186611942565b6127776040830185611a58565b8181036060830152612789818461270f565b905095945050505050565b6000815190506127a381611763565b92915050565b6000602082840312156127bf576127be61172d565b5b60006127cd84828501612794565b9150509291505056fea26469706673582212200980665994229f136839e02c6969948a03e05b30761673f808a432382352896364736f6c63430008090033",
  "linkReferences": {},
  "deployedLinkReferences": {}
}